:020000040800F2
:10000000280D00203104000839040008BD0F000845
:100010003D0400083F0400084104000800000000FF
:100020000000000000000000000000004304000881
:10003000450400080000000047040008FD480008CF
:100040004B0400084B0400084B0400084B04000854
:100050004B0400084B0400084B0400084B04000844
:100060004B0400084B0400084B0400084B04000834
:100070004B0400084B0400084B0400084B04000824
:100080004B04000800000000370C00084B04000877
:100090004B0400084B0400084B0400084B04000804
:1000A000614A0008A54A00084B0400084B040008F8
:1000B0004B0400084B0400084B0400084B040008E4
:1000C0004B0400084B0400084B0400084B040008D4
:1000D0004B0400084B0400087D5C00084B0400083A
:1000E0000D0D00084B0400084B0400084B040008E9
:1000F0004B0400084B0400084B04000800000000FB
:10010000000000004B040008000000004B04000841
:100110004B040008000000004B0400084B040008DA
:100120004B0400084B0400084B0400084B04000873
:100130004B04000800000000000000004B04000811
:100140004B0400084B040008000000000000000001
:10015000000000000000000000000000000000009F
:100160000000000000000000000000004B04000838
:100170004B04000800000000000000000000000028
:10018000000000004B040008000000000000000018
:10019000000000000000000000000000000000005F
:1001A00000000000000000004B0400084B040008A1
:1001B0004B0400084B0400084B040008000000003A
:1001C000000000004B0400080000000000000000D8
:1001D0004B0400084B040008DFF80CD000F0EEFCE4
:1001E000004800475D5F0008280D00200146002000
:1001F00091F8582091F849108A4228BF0120704791
:100200002DE9F04FB0F92E300446826EC3EBC330B7
:1002100093B08242C8BFA06605DCA3EBC33C944503
:10022000A8BFC4F868C0B4F81EC1A76EE56E47FA4F
:100230000CF212B28542DCBFA3EBC330A842ACBFC4
:10024000E066E06E069040FA0CF0B4F92CC003B200
:10025000266ECCEBCC308642C8BF206604DCACEB0B
:10026000CC35B542A8BF2566656E854203DCACEB94
:10027000CC30854200DC606694F81C01D4F86090B4
:10028000B1F804C049FA00F8A8EB0C06B1F806C0B2
:10029000B1F808B0B1F900A0B1F90210656E0BFB1E
:1002A00001F14FEA214ECDF830E045FA00F0B4F804
:1002B00020E0A0EB0C0C0BFB0AFA1EFB08F1B4F8D3
:1002C00022B0A9EB01011BFB06F8CDF83CB0B4F855
:1002D00028B041441BFB1AF8CDF838B0B4F824908C
:1002E000414419FB02F8A1EB08010391B4F8268000
:1002F00018FB06F107EB010B94F83270B4F92A6091
:1003000043FA07F106FB01FAB4F90E100AFB01BA31
:100310001EFB00F0DDF83CB0281A1BFB0CF5DDF8E5
:1003200030E0DDF838B028441BFB0EF5284419FBFB
:1003300003F5451B18FB0CF0DDF818C0A4F870207D
:10034000604442FA07FC06FB0CFC01FB1C06A4F807
:10035000723094F92401002838D000BF12FB00F756
:1003600013FB00F0C0F10008B4F9040001F062FED4
:1003700010FB27F110FB08F040F3CF3041F3CF31F1
:10038000411A04F1340002F06DFD208294F8F4105B
:1003900094F80E21491CC9B28A4208BF002104EB1F
:1003A0004102B2F874C0A4F80CC1A2F8740084F839
:1003B000F410A188084400B2A0800399C4F868A092
:1003C000C4E91815E66613B0BDE8F08F0029ACBF8C
:1003D00001204FF0FF30C1E710B490F8F4C090F85E
:1003E0000F110CF0FF0300EB430390F80E21B3F95B
:1003F0007430D0F80841511A234408BFB0F90C11E9
:1004000007D061449142A8BF891A00EB4101B1F9BC
:10041000741090F82021591A41FA02F2C281C0F8F2
:10042000081110BC70470021343002F012BD0000EA
:100430000648804706480047FEE7FEE7FEE7FEE77E
:10044000FEE7FEE7FEE7FEE7FEE7FEE7454A0008B7
:10045000D901000830B400F10C046830029D2EC0B0
:100460004FF0000C00F824CC00F823CC614678381B
:1004700004E0A4680CF1010202F0FF0C002C18BF8C
:10048000BCF1050FF5D30CEB4C0200EB820291603E
:1004900080F848C00188642251434FF47A72B1FB5E
:1004A000F2F180F8561030BC70472DE9F047044651
:1004B0000026D4E91A89C18080F8556080F8586018
:1004C00080F8536000F10C0580F854600F464846F0
:1004D00005F0ACFC0021404604F055F9608810FBA3
:1004E00007F001B2484605F0FDFC002211464046E7
:1004F00004F0CAF82A88A88810FB07F001B2404629
:1005000004F0C2F82A88688810FB07F001B2484658
:1005100005F0AAFC2888218848434FF47A71B0FB83
:10052000F1F0401CA080A868A06084F85760BDE886
:10053000F0872DE9F05F044680884FF0010A00251E
:10054000D34600287ED0401EA08094F8580030B9D1
:1005500094F855000028206F06D041688847A0888D
:1005600000286FD000F0E3B8C16879B194F8571053
:10057000491CC9B284F8571094F85620914205D905
:10058000C168884784F8535084F85750206F016938
:100590008847002808BF84F8535006D094F85300C9
:1005A0007F283CBF401C84F85300206FC16800299D
:1005B00094F8531005D094F85620B1EB520F02D0A6
:1005C000CDE77F29CBD1006803F0E5FF060048BFE7
:1005D00070420FFA80F8B4F90600002802DD002E00
:1005E00002DD04E0002E02DB84F85350B7E7B4F8D4
:1005F0004A101FFA88F0884205D9206F4168884761
:1006000084F855B0ABE7B4F84C108842A7D94FF046
:1006100000094F46E06E05F023FC206F8168884793
:10062000A068002808BFA58072D0B0F9020040453C
:1006300012DAA168886858B3B1F90290B1F9047070
:10064000A06000E025E094F85810491C84F8581088
:10065000B0F902004045ECDBA068B0F90210B0F937
:100660000400A1EB0901C01B704390FBF1F007FAF5
:1006700080F0E18811FB00F001B20022A06E04F0CE
:1006800003F8A4F804B004F15C00A06006203BE08D
:10069000A580A068D8B394F8580010B101280BD0F9
:1006A0000FE0606F02F06BFD84F854B0606F02F0F1
:1006B0006AFD84F8535004E0606F02F062FD84F834
:1006C0005450A068E288818811FB02F1028809B2C7
:1006D000A06E03F0D9FFA068E288418811FB02F107
:1006E000028809B2E06E05F0BFFBA1682288088885
:1006F00050434FF47A72B0FBF2F0401CA08088683F
:10070000A06094F85800401C84F858000FE0FFE700
:1007100094F8481094F85800491E884208BF4FF0DA
:10072000000A04D0072804BF84F85850A58050461A
:10073000BDE8F09F70B504468088012520B1401EB9
:100740000004000CA08028D1A068002808BF002564
:1007500023D08188E28811FB02F1028809B2A06EE1
:1007600003F092FFA068E288418811FB02F1028841
:1007700009B2E06E05F078FBA16822880888504332
:100780004FF47A72B0FBF2F0401CA0808868A06041
:1007900094F85800401C84F85800284670BD014663
:1007A00000208968002908BF0120704710B500218A
:1007B000C46E81608180204603F0EDFE0146204634
:1007C000BDE81040002205F04FBB01EB410100EBFA
:1007D00081008281704701EB410100EB8100C28101
:1007E000704701EB410100EB81000282704701EB91
:1007F000410100EB81008089704701EB410100EB72
:100800008100B0F90E00704701EB410100EB81005F
:10081000B0F91000704790F84800704790F8540005
:100820007047000030B40023036643668366C366E6
:100830008380C38180F8F63080F8F73080F8F83094
:1008400080F8F930C0F8FC30C0F80031C0F8083149
:1008500080F8223180F8233190F80EC1BCF1000FEE
:1008600015D000221CF001011CBFA0F87430012239
:1008700061450CDA00EB4204521CA4F8743000EB22
:100880004204891C521CA4F874306145F2DB80F8E4
:10089000F430A0F80C31002130BC343002F0D9BA69
:1008A00070B5044690F8160184F8F600012084F82B
:1008B000040100256586B4F92E30BF4991FBF3F1A0
:1008C00009B249B1628E01EBD17102F10102491006
:1008D0004FEA40006286F5D1208613FB00F042F615
:1008E000BE0190FBF1F060852046FFF79BFF04F10D
:1008F000340002F0A4FA658270BD70472DE9F00360
:10090000002690F80E213546B046B44637463446A8
:100910003346002A09D900BF00EB43095B1CB9F933
:100920007490DBB24E449A42F6D896FBF2F600235E
:10093000002A0BD900EB43095B1CB9F97490DBB2B8
:10094000A9EB060909FB09559A42F3D895FBF2F386
:10095000B0F8105106FB06F26A43D51702EB556258
:10096000D2119342B8BF0127428B837872435A4316
:10097000C36992FBF3F2437892FBF3F20A8082811F
:1009800080F8F57090F80431012B18BF012420D0B5
:1009900090F8F820002A4CD0624217424FF0000233
:1009A00011D190F8F7305B1CDBB280F8F73090F88B
:1009B00017C163453DD380F8F720C1780170BDE8C9
:1009C000F0030020704780F8F720BDE8F00303F043
:1009D000F5BD002AB8BF5242B0F81A31934223DD68
:1009E000B0F8703013FB03FCB0F8723013FB03C88F
:1009F000B0F91430C2EBC23292FBF3F290F8193125
:100A000053434FEAE37C03EB9C639B1103FB02FC23
:100A10004FEAEC720CEB926290F81831921102FBE3
:100A200013C29045C8BF012480F8F940C0E93F8C4B
:100A3000AEE7BDE8F00303F0C1BDF0B490F82321A8
:100A40000024012A08BFB0F90C1090F822210023DD
:100A50000125012A38D0B0F90C2012FB01FCBCF1B1
:100A6000000F38DD002ABCBF524212B20029BCBFC1
:100A7000494209B290F812C11CFB01FC4FEAEC7626
:100A80000CEB167C90F813614CF30F1C16FB01F174
:100A9000CE1701EB167190F8F56041F30F11012E9E
:100AA00017D1B0F8147196B2BE4212D98A42A8BFCB
:100AB00094450EDB90F8F610491CC9B280F8F61088
:100AC00090F81621914206D380F8F8500124037063
:100AD00001E080F8F6302046F0BC70470146B0F8DF
:100AE0007020B1F8721062F30F0061F31F4070477D
:100AF00090F81C21036E406E134163F30F01104107
:100B000060F31F4108467047438C0B80C08C1080F7
:100B100070474184C284704770B5044615460E463E
:100B2000343002F087F9308004F1340002F07DF9AE
:100B3000288070BD70B504461546343002F08FF938
:100B4000294604F13400BDE8704002F086B97047D0
:100B500000680021343002F07CB970B504461546B7
:100B60000E46343002F064F900FB06F104F1340063
:100B700002F06FF9A58070BDD0F800017047D0F881
:100B8000FC00704780F80411704790F8F900704736
:100B9000006890F8F50070470068012180F8221184
:100BA00070470068012180F823117047A0F81411E4
:100BB000704780F8241170475EEA0F00064C074D1D
:100BC00006E0E06840F0010394E80700984710341D
:100BD000AC42F6D3FFF704FB2C6A00084C6A00080D
:100BE00070B58C1810F8015B15F0070301D110F8EF
:100BF000013B2A1106D110F8012B03E010F8016B1C
:100C000001F8016B5B1EF9D12B0705D40023521E9E
:100C10000DD401F8013BFAE710F8013BCB1A921C06
:100C200003E013F8015B01F8015B521EF9D5A14204
:100C3000D8D3002070BD10B54FF0A041402008600F
:100C400003F056FFBDE8104004F0C0BA10B40246ED
:100C500008460FFA81FC1CFB0CF40B1413FB034138
:100C6000148864438C4224BF10BC704792F8B24091
:100C7000C4EB1161C9B202EB41018A8810BC0CFBC4
:100C800002F14FEAE17C01EB5C41C91361F30F0013
:100C900003FB02F1CA1701EB5241C91361F31F4074
:100CA0007047000010B590F83010094C002204F095
:100CB00001FB210101FA80F1064802686FF30F126F
:100CC00011430160606840F00100606010BD0000E9
:100CD000000800500C080050084490F8300070479D
:100CE00000EB4100B0F93200704700000248016893
:100CF00041F001010160704700080050084480F88D
:100D00003020704700EB410042867047054801687B
:100D100011F4005F08BF70474FF40051016004F008
:100D2000BFBD000014040140002190B14378017858
:100D300000221944002B09D900EB020C521C9CF82C
:100D400002C0D2B2614489B29342F5D801EB1120BE
:100D5000C1B208467047002141820175417580F893
:100D6000961080F8971080F8981080F8991080F805
:100D70009A1080F81B1180F81C1180F81D11704723
:100D8000DDF800C0002818BF80E80E107047000092
:100D900000EB400101EB001210B5084901EB4204E1
:100DA00094F82410002918BF10BD054951F82000FF
:100DB00003F034FCE083208210BD00007C0700209B
:100DC0001807002010B5044600EB440000EB0412A5
:100DD0001248002100EB4202114811605160D160BD
:100DE0001161D183C2F81610C2F81A10118450F89C
:100DF000240002F02EF80B48002150F8240002F0E5
:100E000028F8094850F8240003F036FC074850F849
:100E10002400BDE8104002F0B2B900007C070020B9
:100E2000200700202407002018070020300700209A
:100E30007047000002488168426811448160704731
:100E40006007002010B50024032000F07BF8042088
:100E500000F008F8002814BF012400F025F820460F
:100E600010BD000070B50E4E05460024706898B1A4
:100E70004FF47A71B1FBF0F00A490968B1FBF0F068
:100E800000F082F840B9102D06D200222946501EEB
:100E900000F026F8356000E00124204670BD000017
:100EA000600700206C0700200C4808B5016E41F077
:100EB00001010166016E01F001010091816D41F0B7
:100EC00080518165806D00F080500090042000F01A
:100ED00039F8BDE8084000F047B8000000100240B3
:100EE000174B10B41B68C3F30223C3F1070CBCF10A
:100EF000040F88BF4FF0040C1C1D072C34BF0023C7
:100F0000DB1E012404FA0CFCACF1010C0CEA01011B
:100F1000994004FA03F35B1E1A40114300284FEA7C
:100F20000111A1BF00F1E02080F8001410BC70474F
:100F300000F00F0000F1E02080F8141D10BC704795
:100F40000CED00E0074900F007000A684FF6FF03C8
:100F50001A4042EA002040F0FD7040F080600860D6
:100F6000704700000CED00E00248816841F48041C8
:100F700081607047007000400148006870470000C1
:100F80006C07002070470000411EB1F1807F24BF34
:100F9000012070474FF0E0204161054AF02182F8BE
:100FA000141D0021816107210161002070470000AC
:100FB0000FE000E010B5FFF7E5FF10BD03F088FD7E
:100FC000174C0825D4F82001C06910F0080F07D08D
:100FD000134804F015F8D4F82001056204F09EFCD3
:100FE000D4F82001C06910F0800F1CBF0C4804F039
:100FF000B0F8D4F82001C16911F0200FE2D0406AA6
:10100000C1B2074804F006F80088012804D002287D
:1010100008BF04F083FCD5E704F07AFCD2E70000B7
:10102000D005002010B44FF0A04C4A68DCF808400E
:101030000023DCF808C144EA0C0C1CF0010F18BFB7
:10104000012302D010BC18467047DFF828C052B107
:101050000C682243D1E9024121431143826802EA2C
:101060000C02114304E08268096802EA0C02114391
:101070008160E7E7E030C0FF4B68D0F808C000228D
:101080001CF0010F18BF012201D0104670475BB160
:10109000D1E9023C43EA0C03D0F80CC02CF0047CEC
:1010A00043EA0C03C36007E0C368D1F80CC023F027
:1010B000047343EA0C03C360D1E900310B43C16CF4
:1010C0006FF308011943C164DFE78368002213F05E
:1010D000010F18BF012201D010467047D1E9003C32
:1010E00043EA0C038968D0F80CC02CF0180C2CF4DF
:1010F000404C41EA0C011943C160EDE730B44B6844
:10110000D0F808C000221CF0010F18BF012202D045
:1011100030BC10467047002BDFF848C00B680ED07B
:101120008C682343D1E903452C4323434C69234373
:10113000C46804EA0C0C43EA0C03C3600BE0CC68FF
:101140002343D1E904452C432343C46804EA0C0C2F
:1011500043EA0C03C3604968036B23F00F03194390
:101160000163D5E71CC0F0FF70B4002401F0100348
:101170000125D2F808C006689D40B54308BF012488
:101180005BD0BCF1000F39D0BCF1C00F10D00168AA
:1011900040F6FC759D40A943156845EA0C0CD568DE
:1011A0004CEA050C0CFA03FC41EA0C01016033E047
:1011B00005684FF0C00C0CFA03FC25EA0C0545EA63
:1011C0000C0CC0F800C0D0F860C040F60F759D4010
:1011D0002CEA050C15685668AD08B60845EA0625E0
:1011E0009D404CEA050CC0F860C0C1F3C01100EB93
:1011F0008101D2F80CC0C1F858C00DE001684FF071
:10120000FC0C0CFA03FC21EA0C01D2F800C00CFA29
:1012100003FC41EA0C010160C16B4FF0070C0CFAB2
:1012200003FC21EA0C01D2E904C592694CEA050CE1
:101230004CEA02029A401143C163204670BC7047D9
:1012400070B4684A067A684B0025141F0168A3F140
:10125000040C002E74D0A1B1467A76B3012E36D09C
:10126000022E18BF01253BD0847A54B15F490A1F72
:10127000012C3DD0022C45D0032C18BF45F00205AF
:101280004AD04168002971D0427A002A4DD0012A03
:1012900057D0022A18BF45F004055DD0837A002B91
:1012A00064D053490A1F012B61D0022B6AD0032B53
:1012B00018BF45F0050571D090E0FFE7166826EAF3
:1012C000010111600168226811432160CCE72668A2
:1012D00026EA010121600168146821431160C3E717
:1012E0002668314321600168146821431160BBE71F
:1012F00004680E6826EA04040C600168146821433F
:101300001160BEE70468166826EA040414600268E7
:101310000C6822430A60B4E704681668344314601A
:1013200002680C6822430A60ABE71A6822EA0101EE
:1013300019604168DCF800201143CCF80010ADE7DB
:1013400037E0DCF8002022EA0101CCF80010416807
:101350001A6811431960A1E7DCF800201143CCF8AA
:10136000001041681A681143196097E736E0436836
:10137000D1F800C02CEA03030B60406811680843F1
:1013800010602BE04368D2F800C02CEA030313601E
:1013900040680A681043086020E0FFE74368D2F81D
:1013A00000C04CEA0303136040680A6810430860F9
:1013B00014E0266826EA010121600168146824EA25
:1013C000010111604168DCF8002022EA0101CCF83B
:1013D00000104068196821EA00001860284670BCB7
:1013E0007047000004040140240401400C04014043
:1013F0002C0401402DE9F0030A6892FAA2F3B3FA33
:1014000083F3DA407ED001250F244FF0030C00BF98
:101410000E6805FA03F2324075D04E68012E18BFEF
:10142000022E22D18F68D0F8088092FAA2F6B6FA7E
:1014300086F64FEA46060CFA06F628EA060692FAFF
:10144000A2F8B8FA88F84FEA480807FA08F746EA17
:1014500007068660CF680E68D0F8048028EA060880
:1014600006FB07F648EA060646600E69D0F80C80CF
:1014700092FAA2F7B7FA87F74FEA47070CFA07F78D
:1014800028EA070792FAA2F8B8FA88F84FEA48085B
:1014900006FA08F647EA0606C6604E68022E34D100
:1014A000B2F5807F16D24E69076A92FAA2F8B8FAAE
:1014B00088F84FEA880804FA08F827EA080792FA39
:1014C000A2F8B8FA88F84FEA880806FA08F63E4308
:1014D00006621AE04F69D0F82480160A96FAA6F937
:1014E000B9FA89F94FEA890904FA09F996FAA6F6D0
:1014F000B6FA86F6B60028EA090807FA06F648EAB8
:10150000060601E01BE015E046624F68D0F8008057
:1015100092FAA2F6B6FA86F676000CFA06F692FA77
:10152000A2F2B2FA82F2520028EA060607FA02F2A2
:10153000324302600A685B1CDA407FF469AFBDE8A1
:10154000F003002070470000014610B50020C029BC
:1015500018BF10BD1A4CD4F8881001F0C00141F436
:1015600040014039B1F5400117D0402919D08029F8
:101570001ED002F047FDA168124A01F0F0010909EE
:10158000515C01F01F01C840A1680F4AC1F302215C
:10159000515C01F01F01C84010BDBDE8104002F0D1
:1015A00031BD2168C1F38021002918BF074810BD53
:1015B000D4F8901011F0020F18BF4FF4004010BD86
:1015C00000100240F8690008086A00080024F400CE
:1015D00070B5024600204449444D454E454C032A0F
:1015E00013D00C2A43D0302A18BF70BDD4F88820FD
:1015F00002F0300242F44012103AB2F5401262D0CA
:10160000102A64D0202A68D03FE0D4F888206FF4F4
:10161000403302F0030242F44032D21853D0012A80
:1016200013D0022A19D002F0EDFCA16801F0F001FC
:101630000909695C01F01F01C840A168C1F3C2211A
:10164000715C01F01F01C84070BD2268C2F38022A6
:10165000002A08BF70BD084670BDD4F8901011F084
:10166000020F08BF70BD00BF4FF4004070BDD4F83A
:10167000882002F00C0242F44022121FB2F54022F0
:1016800021D0042A13D0082A17D002F0BBFCA1688D
:1016900001F0F0010909695C01F01F01C840A1686F
:1016A000C1F30221715C01F01F01C84070BD2268C6
:1016B000C2F38022002ACED170BDD4F8901011F070
:1016C000020FD1D170BDBDE8704002F09BBC226812
:1016D000C2F38022002ABED170BDD4F8901011F060
:1016E000020FC1D170BD00000024F400F8690008A9
:1016F000086A0008001002400149086070470000B5
:101700006C07002010B40A7B8B68DFF890C01A4386
:101710004B6822F480621A430B6822F400621A4379
:10172000CB8922F480521A430B6922F400521A43E7
:1017300022F48043CA6A134323F400431A43164B2E
:10174000984218BF604509D14C6922F4702242EAE0
:1017500004028C6922F0805242EA0402984218BFC7
:10176000604513D14B6A22F4700242EA0302CB694E
:1017700022F0807242EA03020B6A22F0007242EA0F
:101780000302896A22F0005242EA0102426410BC5C
:101790004FF0000070470000002C01400034014071
:1017A0002DE9F0010268234B234CDFF89080DFF82D
:1017B00090C0984218BFB0F1804F04D0A0421CBF27
:1017C0004045604504D14D6822F0700242EA0502AE
:1017D0001C4D1D4E1D4F984218BFB0F1804F0BD0CD
:1017E000A04218BF404507D0604518BFA84203D0AB
:1017F000B04218BFB84204D1CC6822F4407242EA29
:10180000040202608A68C2620A888262984218BF33
:10181000604504D0A8421CBFB042B84201D109695A
:101820000163416941F001014161BDE8F0014FF000
:1018300000007047002C01400004004000080040F8
:101840000034014000400140004401400048014094
:10185000012908BF002124D0042908BF012120D07C
:10186000102908BF02211CD0402908BF032118D02D
:10187000B1F5807F08BF042113D0B1F5806F08BF98
:1018800005210ED0B1F5805F08BF062109D0B1F562
:10189000804F08BF072104D0B1F5803F0CBF08215D
:1018A0000921064A1830525C10440268044B595C06
:1018B000082303FA01F1114301607047106A000820
:1018C0001A6A00082DE9F0070023DFF838C3CE4C70
:1018D000CE4DCF4ECF4F4FF00108B1F5805F00F0F5
:1018E000E08008DC012910D0102952D0B1F5807FAA
:1018F0007ED000F083B9B1F5803F00F01781B1F5DB
:10190000801F00F0488100F079B9016A21F00101DF
:101910000162016AD0F80480D0F81890D2F800A0D3
:1019200029F0730929F4803949EA0A09D2F810A08C
:1019300021F0020141EA0A01D2F804A021F00101DC
:1019400041EA0A01604518BFA04204D0A8421CBF6A
:10195000B042B84215D1D2F814C021F0080141EAD2
:101960008C01D2F808C021F0040141EA8C0194698D
:1019700028F4807C4CEA040CD4692CF4007C4CEAFA
:101980004408C0F80480C0F81890D268426300F0A0
:1019900033B9016A21F010010162D0F8208041685A
:1019A000D0F81890D2F800A029F4E64929F08079FF
:1019B00049EA0A29D2F810A028F0200848EA0A18B3
:1019C000D2F804A028F0100848EA0A18604518BFA9
:1019D000A04204D0A8421CBFB042B84217D15469FB
:1019E00028F0800C4CEA841C2CF0400C946800E039
:1019F00013E04CEA8418D2F818C021F4806141EA5F
:101A00008C01D2F81CC021F4006141EACC01416094
:101A1000C0F81890D168816340E0016A21F48071B8
:101A20000162D0F820804168D0F81C90D2F800A064
:101A300029F0730929F4803949EA0A09D2F810A07B
:101A400028F4007848EA0A28D2F804A028F480781C
:101A500048EA0A28604518BFA04204D0A8421CBF2B
:101A6000B042B84215D1546928F4006C4CEA842C79
:101A700094682CF4806C4CEA8428D2F818C021F4C5
:101A8000805141EA0C11D2F81CC021F4005141EA06
:101A90004C114160C0F81C90D168C163C0F820802F
:101AA000ABE0016A21F480510162D0F820804168E6
:101AB000D0F81C90D2F800A029F4E64929F08079EA
:101AC00049EA0A29D2F810A028F4005848EA0A384E
:101AD000D2F804A028F4805848EA0A38604518BFB4
:101AE000A04204D0A8421CBFB042B84215D15469EC
:101AF00028F4004C4CEA843C94682CF4804C4CEA6A
:101B00008438D2F818C021F4804141EA8C11D2F80F
:101B10001CC021F4004141EACC114160C0F81C9086
:101B2000D1680164C0F82080984667E0016A21F41A
:101B300080310162D0F82080016DD2F8009021F050
:101B4000700121F4803141EA0901B2F8109028F4C3
:101B5000003848EA0948B2F8049028F4803848EA86
:101B60000948604518BFA04204D0A8421CBFB0423B
:101B7000B84208D1D0F804C094692CF4803C4CEAF7
:101B8000042CC0F804C00165D168826C8164C0F87F
:101B90002080984632E0016A21F480110162016AD6
:101BA000D0F85080D2F8009028F4E04828F08078EF
:101BB00048EA0928B2F8109021F4001141EA0951CD
:101BC000B2F8049021F4801141EA0951604518BF30
:101BD000A04204D0A8421CBFB042B84208D1D0F8FD
:101BE00004C094692CF4802C4CEA842CC0F804C006
:101BF000C0F85080D268C264016298464046BDE891
:101C0000F0077047002C01400034014000400140C3
:101C10000044014000480140012908BF002124D0B0
:101C2000042908BF012120D0102908BF02211CD09F
:101C3000402908BF032118D0B1F5807F08BF0421D7
:101C400013D0B1F5806F08BF05210ED0B1F5805FCC
:101C500008BF062109D0B1F5804F08BF072104D085
:101C6000B1F5803F0CBF08210921084B18305B5C9F
:101C70001844D0F800C0064B595C064B8B402CEA48
:101C8000030302FA01F1194301607047106A00086A
:101C90001A6A00087300010070B5044600680D461A
:101CA000012610F0010F5CD12969A868EA69084390
:101CB0006969114308432168314A11400843206093
:101CC000E868616821F4405108436060A869A16830
:101CD00021F440710843A060A4F18040B0F59C302D
:101CE00013D0A4F18040B0F5884008BF0C2010D07C
:101CF000A4F18040B0F5904008BF302009D0A4F195
:101D00008040B0F5984007D024E00320FFF760FC46
:101D100005E0FFF75DFC02E0C020FFF715FC00289E
:101D20001CBF6968002915D02A68EB694FF00006CE
:101D30000B2A0FD8DFF84CC0D2B2B3F5004F5CF8D5
:101D40002220B0FBF2F00ED000EB5100B0FBF1F01E
:101D500080B2E0602888E16A80B221F00F01084378
:101D6000E062304670BD400000EB5100B0FBF1F086
:101D700080B24FF6F0710140C0F342000843E8E73B
:101D8000F369FFEFC869000810B50446406802F027
:101D9000CCFCA168086110BD0068012102F02FBDD4
:101DA000002808BF704710B50446007E012818BF00
:101DB00010BD217B0020012904D0022910D0032965
:101DC0001ED026E0A16881F824000121606802F09D
:101DD000DAFCE28AB4F90E10606802F055FC0CE0FF
:101DE000A16881F824000021606802F0CCFCE28A3E
:101DF000B4F91010606802F047FC50B1022009E00D
:101E0000A168012081F82400A068D4F812100161B3
:101E1000F4E70320207610BD01230373C181C28241
:101E2000037643767047022303730182C282012145
:101E30000176002141767047006802F0AEBC10B513
:101E4000406802F088FCBDE8104002F0A4BB407E70
:101E50007047806800687047806840687047027B00
:101E60000121012A04D0022A07D0032A0AD00FE058
:101E7000B0F90E0000280BDA08E0B0F910000028D5
:101E800006DA03E0B0F91200002801DA4FF0FF3162
:101E9000084670478068C06870478068006970476E
:101EA000027B0021012A08BFB0F90E1008467047D6
:101EB000406802F044BC006802F09ABC8068B0F947
:101EC0001E0070478068D0F81A0070478068D0F80C
:101ED000160070478360C0E9001200210173C181C0
:101EE0000182C18201767047032202734182091484
:101EF00081820121017600214176704782685182FA
:101F000080688182704710B504460068032102F0A2
:101F100076FC00281CBF0121217610BD0068072136
:101F200002F06DBC406802F034BC0000014661F371
:101F30000F0044F6E61211FB02F244F6E61311FB21
:101F400023F10A4411444942C913B1F5004FA8BF17
:101F500047F6FF7104DA11F5004FB4BF054909B225
:101F600061F31F4011F5004F04BF48F2010161F316
:101F70001F4070470080FFFF70B50546084600F01F
:101F800059F82AB203B212FB03F14FEA254C0514AB
:101F90001CFB05F0081AC0131649B0F5004FA8BF86
:101FA00047F6FF7004DA10F5004FB4BF084600B2E0
:101FB00060F30F04104E10F5004F08BF66F30F04D6
:101FC00012FB05F01CFB03F21044C013B0F5004FE8
:101FD000A8BF47F6FF7103DA10F5004FA8BF01B2A2
:101FE000204661F31F4011F5004F08BF66F31F4004
:101FF00070BD00000080FFFF0180FFFF10B50446A8
:10200000084600F017F814FB00F12214031412FB29
:1020100003FC61444FEAE13C29466CF30F0114FBD9
:1020200003F312FB00F0C01AC01360F31F4108460F
:1020300010BD00000449034A0A60A0EB82204860FA
:102040008868704740006000000C0240F8B58C467C
:102050000446DDE90710069FC4F830C0C4E930012A
:1020600008481E4615460090074B084A2146604620
:10207000FEF786FEE763C4E90D56204600F096FBA6
:10208000F8BD00009120000899200008A52700084D
:1020900010B500F08BFB10BD2DE9F04105468CB06A
:1020A0000020984614460E468DF804004F0914D0BF
:1020B0007A1E0021284603F049FC002804BF0B20AB
:1020C0008DF8280000F05983D5F8C40006F01F06EB
:1020D00018B17A1E002103F039FC132E80F04B83D7
:1020E000DFE806F0C20AB0C1C0C0BFBEBDBCBBBA0B
:1020F000B9B8C0C0C0C0C200267805208DF828003D
:10210000472E70D028DC0F2E7ED00BDC0F2E6BD22A
:10211000DFE806F055929263927A7A7A7A7A7A7A3E
:102120007A7A7A00172E6FD009DCA6F11000072802
:102130005AD2DFE800F072728181696969001D2E50
:102140005BD004DC182E5FD01C2E4ED074E0412EE4
:102150005AD0462E61D06FE0652E55D01EDC572E2A
:1021600052D00EDC542E4FD006DC482E55D04F2EC8
:1021700018BF532E48D05FE0552E18BF562E5BD1A6
:1021800042E05B2E49D004DC582E18BF592E53D1A3
:102190003AE0612E18BF642E4ED135E0A6F17400EE
:1021A000152849D2DFE800F019393939393948485A
:1021B0004839394848484848484830303000647801
:1021C00031462246D5F8C40003F0C0FB2246314612
:1021D000284603F0BBFB00F029BA62783146284656
:1021E00003F0B4FB22E218E026E062780021D5F883
:1021F000C40003F0A6FB012018E262780121D5F8A3
:10220000C40003F09EFB7FE16078A17800EB01221F
:102210003146284603F09AFB08E26078A1782279DB
:1022200000EB0120E178090401EB0261421831461C
:10223000284603F08BFBF9E15FF002008DF82800DF
:1022400000F09BBA217803208DF82800892980F0BE
:1022500094820AE0D7E16EE256E244E21CE2E8E151
:10226000BEE18EE187E282E115E2880078444068B1
:102270008744000024020000BE0200002402000087
:1022800024020000BE020000980200009802000034
:1022900098020000980200009802000098020000D6
:1022A00098020000980200009802000098020000C6
:1022B00098020000980200009802000098020000B6
:1022C00098020000980200009802000098020000A6
:1022D0009802000098020000980200009802000096
:1022E000980200004802000074020000BE020000D4
:1022F00098020000980200009802000024020000EA
:1023000006050000060500000605000006050000A1
:102310000605000006050000060500000605000091
:102320000605000006050000060500000605000081
:102330000605000006050000060500000605000071
:102340000605000006050000060500000605000061
:102350000605000006050000060500000605000051
:102360000605000006050000060500000605000041
:1023700006050000060500009802000006050000A2
:10238000060500000605000006050000BE0200006C
:10239000BE020000BE020000980200009802000089
:1023A000980200009802000024020000BE02000013
:1023B00098020000980200009802000098020000B5
:1023C00098020000980200009802000098020000A5
:1023D0009802000098020000980200002402000009
:1023E000BE020000060500009802000098020000EE
:1023F0009802000098020000980200000605000004
:102400000605000098020000980200002402000067
:1024100024020000BE020000BE020000BE02000056
:10242000BE020000BE02000024020000980200006C
:1024300098020000BE02000006050000980200009D
:102440009802000024020000BE020000BE0200004C
:10245000BE020000BE020000BE020000BE0200007C
:10246000BE020000BE020000BE020000BE0200006C
:10247000BE02000024020000060500002402000045
:10248000E4020000E4020000E40200009802000000
:10249000980200009802000001AA284602F00AFFF4
:1024A00000909DF80400002800F07081D5E90C0C24
:1024B00001236A46F02100F03AB900BFD5F8C40004
:1024C000002800F05A81002102F0EAFE8DF8000099
:1024D000D5E90C0C01236A46F021E04701208DF874
:1024E00004000CB0BDE8F081D5F8C400002800F06D
:1024F0004481012102F0D4FE8DF80000D5E90C0CD6
:1025000001236A46F021E04701208FE001AA284616
:1025100002F0D0FE00909DF80400002800F0368103
:10252000D5E90C0C02236A46F021E0470CB0BDE867
:10253000F08101AA284602F0BDFE00909DF804003B
:10254000002800F02381D5E90C0C04236A46F02111
:10255000E0470CB0BDE8F08101AA284602F0AAFECF
:1025600000909DF804000028EDD100F00FB921780B
:1025700007208DF82800284602F038FE8DF8040068
:10258000FBE0002002A902460A54401CC0B22028E9
:10259000FAD3002005E00B18401CC0B2DA701D28E9
:1025A00004D2D5F8C020125C092AF4D1D5F8C02095
:1025B000411D2023515C8DF80810C11D0930515C6C
:1025C0008DF80910D5F8C01002AA085C8DF80A0031
:1025D000D5E90C0CF021E04701208DF80400CFE094
:1025E00020796179E37800EB012082B2207861786C
:1025F00000EB0120A178090401EB036101442846A6
:1026000002F02CFE12E020796179E37800EB0120E2
:1026100082B22078617800EB0120A178090401EBF7
:102620000361084401B2284602F030FE8DF8040030
:10263000A3E005A80090217806AB04AA284603F081
:1026400007F9BDF918005449C0EB0010800081FB68
:1026500000108110A1EBE0708DF80800010A8DF8E0
:102660000910010C8DF80A10000E8DF80B00BDF852
:1026700014008DF80C00000A8DF80D00BDF8100054
:102680008DF80E00000A8DF80F00D5E90C0C082318
:1026900002AAF021E04770E0E079227A237900EB8A
:1026A00002201FFA80FC6078A278217800EB0220DB
:1026B000E278120402EB0362104400EB8000420057
:1026C000364B0020C3FB02025011A0EBE27003B2B4
:1026D0006079A27900EB022000B2009062462846A1
:1026E00003F058FAA2E720786178E27800EB012045
:1026F00001B2A07800EB022002B2284603F014F9E0
:1027000001208DF804003BE00C208DF82800029495
:102710008DF80C80224902A802F0CAFD8DF8040051
:1027200058B31F48F02103790268D5E90C0CE04743
:102730000CB0BDE8F081002002A904E00A54401C5E
:10274000C0B220280DD2D5F8C020125C002AF5D1E5
:10275000202838BF002204D20A54401CC0B22028CE
:10276000FAD3D5E90C0C20230A46F021E0470120DA
:102770008DF8040004E0012060E59DF8040028B114
:102780000023D5E90C0C1A46F021D0E7D5E90C0C52
:1027900001230AAAFF21CAE76766666689888888D6
:1027A0000C00002010B500F001F810BD10B5044673
:1027B000006BE16B8847802084F8C800A16B206B18
:1027C000BDE810400847000001480068FFF773BBF0
:1027D0000400002006480078002808BF704710B5A4
:1027E00000F008F802F094FBBDE8104003F070B868
:1027F0000C07002010B50E4C2078012818BF10BD22
:10280000608800281CBF6088401E02D102F020FAB8
:1028100001206080A08810B1A088401EA080E088C0
:10282000002808BF10BDE088401EE08010BD0000F9
:102830000C07002001480068FFF765BB040000207A
:1028400001480068FFF76ABB040000202DE9F34F40
:1028500081B05A4801F0CEFF594E002406F12C01F8
:10286000347058480860A1F108085748C8F80000BB
:1028700000F0D4FE03F0C4FF544800F0E0FA06F183
:10288000100B5248CBF8000006F10C0550482860A8
:102890005048FEF705F8DBF800104E4A286801F0B2
:1028A00062FF4D4803F0D8FAD8F8000000904B4B77
:1028B000494A4B482968FDF7CDFD4A4800F0BFFA68
:1028C000494800F0BCFA05F108094648C9F800007B
:1028D00005F10C0A4448CAF800004448F06101F0D0
:1028E0004FFE05F11C0142480860F169414FC0E903
:1028F0004371414800F078FA05F114003E49016047
:1029000005F124013D48086001F0D7FD0020FEF7E5
:1029100059FA012087F82400286801F006FF386181
:10292000286801F002FF0014B88207F128002F1F69
:10293000A0F12803386005F128012A68FFF7CAFAD8
:10294000286801F002FF3B68014600221846FFF7A5
:1029500063FA0198396801602948DBF800100160CA
:10296000D9F800104160DAF80010C0E90214D8F874
:10297000001001611A4941611649C0E9061416495F
:1029800001622968416205F12801816214390968F0
:10299000C162F169C0E90C1405F11C018463096886
:1029A000C0E90F1444648464C46404650299086037
:1029B0000120307003B0BDE8F08F00004007002018
:1029C0000C0700201C0500205802002028010020D0
:1029D000AC0100200C030020D402002034040020AD
:1029E000E00100205401002080010020700400203C
:1029F000140000207C07002048040020040500206B
:102A0000C0070020B0F80031002220F81310B0F801
:102A10000031A0F802315B1C9BB2A0F80031802B82
:102A200024BF0023A0F800315FF0000330F913C089
:102A30005B1C9BB26244802BF8D3D31702EB53622A
:102A4000D211A0F804210846704700210A4620F858
:102A50001120491C89B28029F9D3A0F80021A0F8DF
:102A600002217047B0F904017047000008B5FEF775
:102A700083FA4FF4FA61B0FBF1F0FEF785FA0749EB
:102A8000081FFFF7E3FE03F055FE044B04481A1F2E
:102A900000900121101F03F099F808BD08000020E4
:102AA000E06800082DE9F04FA1B000201E900090D2
:102AB0001D901F90209005901C9001900290049012
:102AC0000F900390069007900E9014901090119024
:102AD00012901390199015901690179018900A90D4
:102AE000A248006EA14940F400600866086E00F438
:102AF00000601A90C86C40F00100C864C86C0225E0
:102B000000F001001A90C814CDE908054FF0010843
:102B10000C20CDE90C80CDF82C8008A94FF0904016
:102B2000FEF768FC0020ADF8700040204FF4A65975
:102B3000CDE91D098000CDE91F088D4C1CA9204658
:102B4000FEF72EFE206820F080002060DFF824A22F
:102B5000CDF87890DFF820B29AF800005844074684
:102B600002680AF10A06082133789940114301608E
:102B70006020009000200190029003900490059046
:102B8000069007906A4601212046FEF79BFE3968B1
:102B900038463278042707FA02F291430160CDF8F3
:102BA00078909AF8020058441A900268B378082185
:102BB00099401143016000200190029003906A4601
:102BC00010212046FEF77EFE1A980168B27807FAB7
:102BD00002F291430160CDF878909AF804005844CD
:102BE0001A9002683379082199401143016000204E
:102BF0000190029003906A46A1152046FEF762FEFE
:102C00001A980168327907FA02F291430160CDF80F
:102C100078909AF8060000EB0B09D9F80010B27909
:102C2000082090400843C9F8000070200090002060
:102C300001900290039005906A46A1142046FEF789
:102C400041FED9F80000B17907FA01F18843C9F8CB
:102C50000000A06820F0700020F4401040F0100048
:102C6000A060A06820F0070020F4803040F006004B
:102C7000A060E06820F04000E060E06820F4804060
:102C8000E060606820F0700020F0007040F070009C
:102C90006060606820F470006060A06820F08000D0
:102CA000A0603648016898FAA8F2B2FA82F202F0FF
:102CB0001F02461506FA02F2914398FAA8F2B2FAF8
:102CC00082F202F01F0206FA02F211430160C01400
:102CD0004710CDE90E07C010109000208DF8440079
:102CE000ADF84600129013901490E805159040003E
:102CF00016904FF4401017900020189019900EA9CC
:102D00002046FEF7FFFC1948C06C184940F001004E
:102D1000C864C86C062400F001001A908815CDE93B
:102D200008050020CDE90A50CDE90C5408A94FF060
:102D30009040FEF75FFBCDE908650020CDE90A5021
:102D4000CDE90C5408A94FF09040FEF753FBCDE9B4
:102D500008750020CDE90A50CDE90C5408A94FF0C0
:102D60009040FEF747FB21B0BDE8F08F0010024015
:102D7000002C0140CC680008182C0140642C014054
:102D800010B504460078002818BF002012D194F82E
:102D9000260001F0B5F9A0F57F41FF3907D0218B5E
:102DA000238A4A1E03FB0200B0FBF1F0208220467A
:102DB00000F02CF8E08280B210BD00210182704743
:102DC0000178002918BF808A01D000B27047018ABB
:102DD000026A891AB0F91E20808C5143CA1701EB90
:102DE000124100EB2140F0E710B50446007820B115
:102DF0000020E082608A208210BD201D01F06EFA62
:102E000084F826002046FFF7D8FF10BD018A428BC8
:102E1000914284BF08207047828B8A428CBF002079
:102E2000C08A7047B0F922007047B0F906007047B9
:102E3000408B7047B0F904007047008B70470188E1
:102E400081804188C180018C418400218160816240
:102E500070478160704741847047C18070478180AE
:102E60007047000070B4B0F90420002402FB01F6A2
:102E7000B0F90620B0F914C0B0F91630002A04BF2A
:102E80000021816014D085684A43A91805D5002D1A
:102E9000C4BF002A6FF0004103E0002DBCBF002A30
:102EA0000F49C2688A42A5BF02699142826081606F
:102EB000827F8168057F41FA02F246FA05F52A44CD
:102EC0006245C4BFACEB0204624603DC9342C4BF5C
:102ED0009C1A1A462144816070BC10B270470000F1
:102EE0000100008070B5D0F80C110446C868D1F814
:102EF000161010FB01F210FB3121C81701EB104036
:102F00000514D4F8100102F0EDFED4F8081148437E
:102F10004FF4167190FBF1F0684300EB4000084954
:102F2000400081FB00108110A1EBE071C81701EB9C
:102F3000104001142046BDE87040FFF763BD00005B
:102F400067666666C169084770B50446002511B119
:102F5000012908D017E000F012F9B4F85200A4F8E3
:102F6000440080B90BE0B4F84400002808BF0125F4
:102F700009D0401E0004000CA4F8440003D12169CC
:102F8000204688470125284670BD4268104730B466
:102F9000038E0AB253430A14B0F850104A43520049
:102FA000524202EB030CA2EB03030CEBDC7C03EBC1
:102FB000D3735FEA6C0C4FEA63034FEA910153D578
:102FC000002B18DA042280F83A20ACEB0302D41765
:102FD00002EB943201EBA241DA1703EBD23201EBA0
:102FE00062434FEAEC720CEBD232A1EB624CA0F8D8
:102FF0003CC0C1876CE0002A1BDC4FF0030C80F85A
:103000003AC0A2EB030C4FEAEC740CEB943C01EBDE
:10301000AC414FEAE37C03EBDC334FEAE27C01EBAB
:10302000634302EBDC32A3EB624CA0F83CC0C387E5
:1030300017E0022380F83A30ACEB0203DC1703EB15
:10304000943301EBA3414FEAEC730CEBD333A1EBC8
:10305000634CD31702EBD3320CEB62438387A0F8A7
:103060003EC0A0F8401052E0002B17DB012280F890
:103070003A20ACEB0302D41702EB943201EBA241ED
:10308000DA1703EBD23201EB62434FEAEC720CEB3E
:10309000D2328387A1EB624CC18736E0002A1ADC6A
:1030A000052380F83A30ACEB0203DC1703EB9433D2
:1030B00001EBA3414FEAEC730CEBD333A1EB634C70
:1030C000D31702EBD33281870CEB6243A0F83EC0EA
:1030D000A0F840301BE04FF0000C80F83AC0A2EBA3
:1030E000030C4FEAEC740CEB943C01EBAC414FEA5F
:1030F000E37C03EBDC3301EB63434FEAE27C02EB5E
:10310000DC328187A3EB624CC387A0F840C0002962
:10311000D8BF002189B24186002BD8BF00239AB2C4
:103120008286BCF1000FD8BF4FF0000C1FFA8CF361
:10313000C386B0F84EC0BCF1010F02D0816930BC2B
:103140000847B0F948C0BCF1000FB0F854C0CCBF7C
:103150006144A1EB0C014186B0F94A1000291FFA25
:103160008CF1CCBF1144511A8186B0F94C10002962
:103170001FFA8CF1CCBF1944591AC186DEE7816869
:103180000847C1680847416908470000816882B064
:1031900021F03F0121F0204181608168C1F300717D
:1031A00041BB816821F03F0121F0004141F0805195
:1031B00081603149314A0968B1FBF2F10191009116
:1031C000C1B1B1F1004F52D20029D8BF002105DDB5
:1031D00011F0010102D0019A521E0192009A491C7D
:1031E000521C914206DA019B891C5B1E5B1E0193F7
:1031F0009142F8DB816821F03F0121F0404141F02C
:10320000004181608168C90FFCD1016811F0010F94
:103210000BD1816821F03F0121F0004141F0010113
:103220008160016811F0010FF3D0816821F03F0146
:1032300021F0004141F008018160816821F03F01E7
:1032400021F0004141F020018160C16821F40011AA
:1032500021F0004141F40011C160816821F03F017B
:1032600021F0004141F00401816002B070470199F2
:10327000491E0191FCD1BDE76C070020400D030001
:1032800090F8701091B9416F91F8BA20022A0DD1CF
:103290000A6AB1F8AC109162416F4A6AB1F8AE1097
:1032A0009162426F916AB2F8B0208A62012180F87F
:1032B0006E1046307047416F89684A6C42F48062F4
:1032C0004A64012180F86F1080F870104630704712
:1032D0002DE9F0470446406F0026D0E90185D0F87B
:1032E0000090E6652666666684F86C60286A20F0C1
:1032F000550020F4A0602862514961605149A161E4
:103300008021A4F86A10042784F86D70204684F8A0
:103310003A7000F0A5FD4C48696801407029FBD166
:10332000D9F8080020F03F0020F0004040F00800ED
:10333000C9F80800D8F8080020F03F0020F000404D
:1033400040F00800C8F80800606F04F16C0304F155
:10335000380190F8BB20284603F088FA204600F098
:1033600045FD84F86C603948606084F86D6084F8CD
:103370003A60204600F074FD606F04F16C0304F1C4
:10338000380190F8BB20284603F070FA204600F080
:103390002DFDE06D30490009E065206E00092066D2
:1033A000606E000960662A4860602A48A0610A7859
:1033B00005F1180002EB000CDCF8008001F10A02B4
:1033C000082392F8009003FA09F928EA0908CCF8D2
:1033D000008091F802C08444DCF8008092F80290EA
:1033E00003FA09F928EA0908CCF8008009790844A9
:1033F0000168127903FA02F291430160B4F868009F
:103400006863B4F86800A863B4F86800E863012151
:103410002846FEF71DFA10212846FEF719FA4FF448
:1034200080712846FEF714FA296A40F25550084385
:10343000286284F83A7084F87060BDE8F087000074
:103440007D350008453C000870000002D5350008B5
:103450005D340008793C0008106A000870B490F8E8
:103460003AC0436F4C2404EB8C049A681C592568BD
:10347000642404EB8C041B591C68536823F070030C
:1034800023F0007353603C4A530CBCF1060F64D226
:10349000DFE80CF01D404003031DD0F85CC0ACEB2E
:1034A000050C1CF5004FD8BF0A8005DDBCF5004FA8
:1034B000ACBF0B80A1F800C0D0F860C0ACEB040C2E
:1034C0001CF5004F45DDBCF5004F3DDA43E0D0F878
:1034D00060C0ACEB050C1CF5004FD8BF4A8005DD81
:1034E000BCF5004FACBF4B80A1F802C0D0F864C05F
:1034F000A4EB0C0CB1F90240ACEB040CBCF5004F92
:10350000A8BF0B8029DA1CF5004FD4BF0A80A1F8B0
:1035100000C022E0D0F85CC0ACEB050C1CF5004FFD
:10352000D8BF0A8005DDBCF5004FACBF0B80A1F809
:1035300000C0D0F864C0A4EB0C0CB1F90040ACEBB7
:10354000040CBCF5004F01DB4B8006E01CF5004F7E
:1035500001DC4A8001E0A1F802C00A88A0F84820F6
:103560004A88A0F84A200A88498811444942A0F8AC
:103570004C1070BC704700000180FFFF30B490F821
:103580006D40426F4FF04C0C0CEB840C936852F87A
:103590000CC0DCF800C0642505EB840412591268E5
:1035A0005C6824F0700424F000745C6090F86C3067
:1035B000102B0AD2C36D6344C365036E1A440266BE
:1035C00090F86C20521C80F86C2000200880488005
:1035D00030BC704710B4436F90F86DC0642404EBA6
:1035E0008C0C9A6853F80C301B68D2F804C02CF08D
:1035F000700C2CF0007CC2F804C090F86C20102AEB
:1036000007D2426E1A44426690F86C20521C80F831
:103610006C2000200880488010BC70472DE9F04FD6
:103620000546406F8DB0D0E90B13D0E9032AD0E9ED
:103630000687D0F814900093436B0293836B019339
:10364000D0E9004B8668606820F0040060600420C8
:103650002060636823F02003636020232360DBF88D
:1036600004C02CF0040CCBF804C0CBF80000DBF84D
:10367000040020F02000CBF80400CBF800308B4889
:10368000A6F18043B3F5963303690CBF43F400639E
:1036900043F4005303618AB1106818B1036843F022
:1036A00001030360506818B1036843F0010303602D
:1036B000906818B1026842F001020260BAF1000F8E
:1036C00017D0686F90F8BD20012A18BF002904D0D8
:1036D000B0F8B620C06B00F00BFBDAF8000040F049
:1036E0000100CAF80000DAF8000040F00040CAF813
:1036F0000000B9F1000F18D0686F90F8BE100129D2
:103700001CBF0099002904D0B0F8B620006C00F06E
:10371000EFFAD9F8000040F00100C9F80000D9F82C
:10372000000040F00040C9F80000B8F1000F18D0C8
:10373000686F90F8BF1001291CBF0299002904D0BE
:10374000B0F8B620406C00F0D3FAD8F8000040F092
:103750000100C8F80000D8F8000040F00040C8F8A8
:103760000000A7B1686F90F8C01001291CBF019933
:10377000002904D0B0F8B820806C00F0B9FA38689D
:1037800040F001003860386840F000403860A068C0
:1037900010F0010F08D12046FFF7F8FC4020206010
:1037A000606840F040006060DBF8080010F0010F36
:1037B00004BF5846FFF7EAFC34464FF47A70029093
:1037C000306820F001003060706820F0700020F058
:1037D0000070706001213046FEF73AF81021204653
:1037E000FEF736F84FF480712046FEF731F84FF4BB
:1037F00080512046FEF72CF8606940F001006061BE
:10380000686F90F8C110022903D095F8461099B15D
:1038100026E090F8C210012904BF90F8BB000328ED
:1038200011D14FF001002063606940F00100606138
:103830004FF00300206306E090F8BB00012802D09F
:10384000032805D00CE0B5F86800401E606207E070
:1038500001202063606940F0010060610320206363
:103860006FF080002061686F90F8BC00002818BFDE
:103870006FF480710DD02069C0F3002000281CBFB8
:103880000298002805D021610298A0F10100029061
:10389000F1E7E06840F08000E060216A40F25550B6
:1038A00041EA000020620DB0BDE8F08F002004E086
:1038B000002190F86F300A46012B04BF022180F8E6
:1038C0006F2090F86E30012B04BF41F0400180F86A
:1038D0006E2008467047000070B50546406F84684A
:1038E00095F84700012818BF70BD602201212046CD
:1038F000FEF792F9206A40F001002062686F90F8AC
:10390000BA00012804BF206A40F0040005D0022854
:1039100004BF206A20F0040000D12062B5F86800DE
:1039200040086063602210212046FEF775F9206A86
:1039300040F010002062686F90F8BA00012804BFC0
:10394000206A40F0400005D0022804BF206A20F021
:10395000400000D12062B5F868004008A0636022F2
:103960004FF480712046FEF757F9206A40F48070CA
:103970002062686F90F8BA00012804BF206A40F402
:10398000806005D0022804BF206A20F4806000D146
:103990002062B5F868004008E063064868600648A1
:1039A00068610648E8600648A860002085F847007E
:1039B00070BD00005D340008AF3F0008613E0008A4
:1039C000ED3D000870B50546406F846895F84700E6
:1039D000002840D1602201212046FEF71DF9206A0F
:1039E00040F001002062206A20F0040020620020E4
:1039F0006063686F90F8BA00012802D002280DD0E9
:103A000019E0102211462046FEF706F9206A20F040
:103A100010002062206A40F040000BE020221021BC
:103A20002046FEF7F9F8206A40F010002062206A74
:103A300020F04000206270224FF480712046FEF793
:103A4000EBF8206A20F480702062206A20F4806005
:103A50002062286EE8650648686006486861064886
:103A6000E8600648A860012085F8470070BD0000A6
:103A7000F13A0008F93B0008393B0008ED3D000829
:103A800070B50446406F70228568012084F8780084
:103A9000B4F868004843000C60864FF48051284613
:103AA000FEF7BAF8B4F86800B4F85610401A286463
:103AB000B4F85800E863608E6863686820F07000AE
:103AC00020F0007040F070006860032084F83A0035
:103AD00068680649084018BF0120218F012918BFD6
:103AE00070BD01200021218770BD00007000000220
:103AF000426F9268536823F0700323F000735360A1
:103B000090F83A304FF0640C426F0CEB8303D258BC
:103B10001268006E801A074A9042D8BF104605DD31
:103B200047F6FF729042A8BF47F6FF7008804880B2
:103B3000704700000180FFFF10B4426FD2E901C15D
:103B40001368012280F87820D41E0C610A6912F0F3
:103B5000010FFBD00C6101224A63B0F86820521FAC
:103B60000A640A6912F0010FFBD0CA6842F0010230
:103B7000CA604A6C42F480624A644A6C42F4004271
:103B80004A64426F92F8BA40022C1ED1096A40F290
:103B900055542142116AB2F8AC200BD08A61426FB1
:103BA000516AB2F8AE208A61426F916AB2F8B020D1
:103BB0008A620AE08A62426F516AB2F8AE208A6273
:103BC000426F916AB2F8B0208A62032180F83A10FD
:103BD000986820F03F0020F0004040F00800986016
:103BE000DCF8080020F03F0020F0004040F0080022
:103BF000CCF8080010BC7047416F0122896880F83A
:103C0000782000224A63921E0A610A6912F0010FAD
:103C1000FBD04A6C42F400424A64416F91F8BA20EA
:103C2000022A18BF70470A6AB1F8AC109161426F5E
:103C3000516AB2F8AE208A62416F886AB1F8B0105A
:103C40008162704790F86D1080F83A10B0F86810F3
:103C5000438E491E8AB2416F89684B63838E8B63A2
:103C6000C08EC8630A6448680249084018BF012032
:103C7000704700007000000230B4446FB0F8682054
:103C8000818FB4F8B2C0531A9BB2634506D90421A0
:103C900080F83A1091B2491E89B217E0C58F4D1BCA
:103CA000ADB2B5EB430F84BFB4F8B420891A0CD879
:103CB000614489B2914209D34FF48072A0F86A201E
:103CC000B0F86820C1EB4201491E89B2A268438E58
:103CD0005363838E9363C08ED0631164506803492D
:103CE000084018BF012030BC70470000700000027F
:103CF000C0F3035301EB830382B0D3F808C06FF322
:103D00000F1C4CEA02029A604A6800F003031A434F
:103D10004A6000F01002012090400A68324B30EAFD
:103D2000020C304A2AD0D1F800C04CEA00000860EA
:103D30001068B0FBF3F0C0000190009004BF02B027
:103D40007047B0F1004F40D20028D8BF002005DDF9
:103D500010F0010002D00199491E01910099401C08
:103D60004A1C9042A4BF02B070470199801C491EB2
:103D7000491E01919042F8DB02B070471068B0FB19
:103D8000F3F010EB40000190009004BF02B07047C8
:103D9000B0F1004F1FD20028D8BF002005DD10F081
:103DA000010002D00199491E01910099401C4A1C52
:103DB0009042A4BF02B070470199801C491E491E61
:103DC00001919042F8DB02B070470198401E0190CB
:103DD000FCD102B070470198401E0190FCD102B0A6
:103DE000704700006C07002080841E00416F8968C6
:103DF000CA6822F00102CA60002380F842304A6C8F
:103E000022F400424A6490F87020012A1BD0426FCD
:103E100092F8BAC0BCF1020F15D1D2F820C0B2F8A6
:103E2000AC20CCF82820D0F874C0DCF82420BCF8F2
:103E3000AEC0C2F828C0D0F874C0DCF82820BCF8A6
:103E4000B0C0C2F828C06FF0010CC1F810C00A69F8
:103E500012F0010FFBD0C1F810C080F87830704725
:103E600010B4416F0122896880F87820002280F820
:103E70004220B0F8682052084A63B0F8682052081F
:103E80008A63B0F868205208CA63B0F86820521FED
:103E90000A646FF001030B610A6912F0010FFBD095
:103EA0000B614A6C42F480624A644A6C42F40042FC
:103EB0004A64426F92F8BAC0BCF1020F29D1D1F81E
:103EC00020C040F255541CEA040FD2F820C0B2F8CA
:103ED000AC200FD0CCF81820D0F874C0DCF8242027
:103EE000BCF8AEC0C2F818C0426F906AB2F8B020F9
:103EF00082610EE0CCF82820D0F874C0DCF82420D1
:103F0000BCF8AEC0C2F828C0406F826AB0F8B000FA
:103F100090620B61C86840F00100C86010BC704737
:103F200070B4416FD1E90034D1E902C1D1B1DA6C8A
:103F3000002AFCD190F83A2001EB8205EA682AB108
:103F4000ED6B166826F486763543156090F83A20B6
:103F500001EB8202516A29B1526D0D6825F4867514
:103F60002A430A6090F83A207C25416F05EB8202D3
:103F7000895830F86A2F1143D96410F8302CD0F8E2
:103F80000A10942303EB8202895802881143E164EA
:103F9000DCF8041021F0700121F0007141F0700193
:103FA000CCF80410802120F8241970BC7047416FB0
:103FB00001226FF00103896880F84220426F926805
:103FC000136100224A638A63CA630A6912F0010F0F
:103FD000FBD04A6C42F400424A64416F91F8BA2027
:103FE000022A18BF70470A6AB1F8AC109161426F9B
:103FF000516AB2F8AE208A61406F816AB0F8B000B1
:10400000886170471549886800F00C031448042B38
:1040100008BF7047134A082B04BF104670470C2B8B
:1040200018BF7047CB6803F00303022B02D0032BA9
:1040300008BF1046CA68C2F306224243C86801237B
:1040400000F0F00003EB1010B2FBF0F0C968C1F310
:104050004161491C4900B0FBF1F07047001002407B
:104060000024F40000366E01F0B42148214D03789D
:1040700003EB430415F8140001281CBFF0BC704783
:104080001D4A042152F823000068016052F82310F1
:104090004FF0010C0868097909290CFA01F646EA83
:1040A000816601EB410198BF46EA015105D9134FE2
:1040B00007EB0151314341F00071066BC1F384619C
:1040C00026F4F86646EA8111016352F8230000687D
:1040D000016C816821F03F0121F0004141F00401B1
:1040E000816005EB440080F801C0F0BC704700001F
:1040F000460700204408002014080020000020FE8D
:104100002DE9F0034A4900EB4007002311F817405E
:10411000484D0A464FF0040C9846012602EB470230
:104120005CBB00BF03EB430411F81490B9F1010F1D
:1041300011D101EB440999F80540844298BF9C468F
:1041400009D95471137104EB440301EB430389F85B
:104150000500187104235B1CDBB2042B12D0E1D3E1
:1041600001F8176082F801802B7803EB430301EB21
:1041700043014978012918BF28702F4991F8781018
:10418000A1B150E0BCF1040F08BF2870E8D00CEBDF
:104190004C0301EB43046379537103EB430382F84F
:1041A00004C001EB430360711871D9E7234B53F846
:1041B0002010D1F800C00979092906FA01F444EA6F
:1041C000816401EB410198BF44EA015105D91C4EBD
:1041D00006EB0151214341F00071DCF83040C1F39E
:1041E000846124F4F86444EA8111CCF8301053F867
:1041F00020100968D1F840C0D1F808C02CF03F0C5D
:104200002CF0004C4CF0040CC1F808C053F820000E
:104210000068016811F0040FFBD0006C50805079E9
:104220002870022050705088BDE8F00370470000ED
:1042300044080020460700205802002014080020EF
:10424000000020FE10B5124CA078012818BF10BD48
:104250006078FFF755FFA080014660780D4B00EBBA
:10426000400203EB42025278002A1CBF0222A270D5
:10427000094A52F83030002B08BF10BD4FF0000C37
:1042800002EBC00284F802C05268BDE81040184733
:104290004607002044080020240800200C4A0D494D
:1042A000107800EB400301EB43014B78012B0BD15D
:1042B000094B53F820000068036813F0040F03D083
:1042C000006C4880022048704879107070470000E8
:1042D00046070020440800201408002030B4FF21C5
:1042E000464B002253F822C0BCF1000F20D09CF8AE
:1042F00004400579AC4206D1DCF800C00468A4454E
:1043000004BF11460422521CD2B2042AEAD3042963
:1043100071D23B4A43F821004FF0000C42F831C003
:104320000268936813F0010F4FF0040304D02CE0EF
:10433000042988BF1146E6E7546824F00404546059
:10434000026813600268546824F020045460026814
:10435000202414600268946824F03F0424F0404450
:1043600044F00044946002689468E40FFCD107E0D4
:10437000946824F03F0424F0004444F00104946065
:104380000268146814F0010FF2D01E4C01EB4102D8
:1043900004F812C004EB4202517111710268D2F8A4
:1043A00030C02CF00F0CC2F830C002790124092A69
:1043B00004FA02F4D0F800C044EA826402EB42023C
:1043C00098BF44EA025205D90F4D05EB0252224331
:1043D00042F00072846803EAD25060444369C2F339
:1043E00004524FF0070C0CFA02FC23EA0C0304FA07
:1043F00002F21A43426130BC08467047140800209C
:104400002408002044080020000020FED0E9021308
:104410004269012B05D9D0F810C0A3F10103614412
:1044200005E005D141684FF0000301FB02F1C360D4
:10443000816091FBF2F070472DE9F05F04460E4673
:10444000806861695FEA020990FBF1F74FF0010AA9
:1044500011D0F01B804601F06DFD8346384601F017
:1044600069FD0546304601F065FD5D450CD95845AE
:1044700088BF58460BE0304601F05CFD6061704338
:10448000A0600020E06014E0854238BF284600FBB1
:1044900007F16061C4E9016121684FF47A7201FBA0
:1044A00009F1B1FBF2F1491C08FB00F090FBF1F0BF
:1044B000E16020615046BDE8F09F002181604160CD
:1044C000C160016101214161704701460020C96856
:1044D000002908BF0120704770B5044690F82600F7
:1044E000FFF70EFEA0F57F418446FF3921D094F8F6
:1044F0002510206A20F811C00021228B0846002ACE
:1045000088BF236A07D900BF33F81050401CC0B2DF
:1045100029448242F8D8B1FBF2F0E080A4F804C04C
:1045200094F82500511E8842B4BF401C002084F836
:104530002500204600F002F8208170BDC188428B22
:10454000914284BF02207047808B88428CBF042038
:1045500000207047418B828B038B11444A08002155
:10456000002B07D9036A23F81120491C038B89B259
:104570008B42F7D88280C280002180F825107047D6
:1045800010B504460C30FFF7A9FE84F8260020463B
:10459000FFF7E0FF10BDB0F90C007047B0F9040060
:1045A0007047B0F910007047B0F90C10B0F9140062
:1045B000C1EBC13191FBF0F000B2704730B4B1F9FA
:1045C0000050012490F803C000230278002DBABFE8
:1045D000694289B20988858A8D4238BF0123C58A1C
:1045E0008D4288BF0123B0F912100029BABF494299
:1045F00089B2418A058B8D4228BF002B04D06245C9
:104600003CBF511CCAB202E0624538BF002262457D
:1046100008BF00240270204630BC704770B50546C4
:10462000007800280CBFAC686C68E968012904D9DF
:10463000AA69A1F10101144405E005D169884FEA96
:1046400001444FF00001E960012805D0E01704EBB8
:1046500010400014AC6070BDE01704EB104006146D
:104660006869FFF798FF301A01B22869FEF7FAFB74
:104670000104C5E9014170BD0178012918BF7047E7
:1046800000690021FEF7E5BB2DE9F0410446007802
:1046900017460D46012660B16068C11700EB114056
:1046A000E18B0014A942A4BFB4F924108D4212DAA0
:1046B0000FE0204600F051F8E18CA94205DAB4F988
:1046C000281000268D421CDA03E0B4F928108D4230
:1046D00008DA002615E0218C8D42BCBFB4F9221007
:1046E000A942F6DB87B16580A18B4FF47A727943DA
:1046F000B1FBF2F1491C281A000490FBF1F0E160D3
:10470000A0613046BDE8F08121782804012914BF5A
:10471000A06060600020E060F2E710B504464069E8
:10472000FFF739FF0004606010BD0146C28D098E9D
:1047300062F30F0061F31F407047C08B7047406801
:10474000C11700EB114000147047B0F92C007047FE
:10475000B0F924007047406970478068C11700EBCA
:10476000114000147047C0E9041290F82A1001703B
:10477000818D09044160C18D09048160002141805F
:10478000C1608161704701700021C1607047416163
:1047900070470021C16081617047027800210B2AB7
:1047A00004D1092101700021818001210846704750
:1047B000B0F802C003784CEA010C2CEA02024280F5
:1047C000B0F804C00A2B4CEA0101818005D012B177
:1047D0000A2101700B4618467047002AFBD10B21B5
:1047E00001700B46F7E78188408841EA0040704736
:1047F000007870470021017041808180704710B5BA
:1048000002780024152A6CD2DFE802F00E1B303348
:10481000525E636669706B6B0B21262B3D424D58CF
:104820004800002966D05CE003291CBF01290C293F
:1048300060D0072903D000228021FFF7B9FF20466E
:1048400010BD07291CBF0D290E2953D049E00E29A0
:1048500018BF07294ED044E00F2918BF072949D0B7
:104860003FE0022918BF072944D03AE0072941D088
:1048700037E0072918BF10293CD004291CBF112993
:10488000012937D02DE0112918BF072932D028E09F
:1048900012291CBF072914292CD022E0122918BF85
:1048A000072927D01DE0042918BF072922D018E0C6
:1048B00013291CBF072905291CD012E004291CBF9D
:1048C0000729052916D00CE0062918BF072911D0A1
:1048D00007E007290ED004E008290BD001E00929E0
:1048E00008D0032918BF0129A9D0A2E7002918BFC1
:1048F0000C29F6D14FF001040170A0E710B5084C67
:104900002078022805D1FCF795FAFCF753FB00202C
:104910002070C0B2401C2070BDE81040FDF75ABFA7
:104920004C0700203E4810B5016821F00F0141F00E
:1049300004010160016801F00F010429FAD139482E
:1049400050F8801F21F480710160374C206840F4DA
:10495000803020602068C0F340400028FAD02068F2
:1049600040F400202060E16845F253502F4A114086
:104970000843E0602E48E1682E4A11400843E06099
:10498000E06840F08070E060E06840F48030E06013
:10499000206840F0807020602068C0F340600028EC
:1049A000FAD0A06840F00300A060A06820F0F000FA
:1049B00040F08000A060A06800F00C000C28FAD144
:1049C0001D48016841F0807101601C48016841F098
:1049D000010101600021416041686429FCD3A068A5
:1049E00020F0F000A060A06820F4E060A060A06863
:1049F00020F46050A0601248FCF77EFE0420FCF713
:104A000031FAD4F8880020F00C00C4F88800D4F8FB
:104A1000880020F0405040F08050C4F8880010BD5D
:104A20000020024000700040001002400C80FFF99E
:104A3000535500400C80FF07FCED00E0001000E043
:104A400080FE210A0448016841F4700101600349B5
:104A50004FF000600860704788ED00E008ED00E06E
:104A600010B50D4C206810F0800F05D06FF080005D
:104A700020600A48FEF71FFC09480069C0F30020C7
:104A800028B16FF4807020600448FEF7F9FBBDE8A0
:104A90001040FDF7AFBE0000102C0140580200206E
:104AA000002C014003496FF0010008600248FFF745
:104AB00037BA0000102C01405802002003490020A2
:104AC0008988002908BF0120704700000C070020DA
:104AD000054810B50068FFF789F90022BDE81040CD
:104AE00080210248FFF764BE300700204007002005
:104AF0002DE9F04F4E4C8BB04FF0000BD4F81A005C
:104B000006904C480078132808D14B4D2868FFF7D1
:104B1000DCFC18B92868FFF779FC20824748006858
:104B2000FFF719FE0A90FFF739FD07460A98FFF7CD
:104B300038FDDFF80CA109A9DAF80000FEF725FA24
:104B4000FFF7ACFBFFF790FA0998FDF7EFF9814604
:104B50003946FDF711FA0546B4F9100029B2411A99
:104B6000AAF110000068FEF77DF960F30F06B4F9B2
:104B70001200A0EB2541AAF10C000068FEF772F9C3
:104B8000314660F31F410AF108000068FCF75EF847
:104B900080460A98FFF705FD39464046FDF72EFA94
:104BA00006463146DAF80000FEF7F1F9C4F816803F
:104BB0000999E560C4E90019C4F81A60278401283E
:104BC00021D02048FBF712FB054660680790AAF148
:104BD0002400C06901F08BF8ADF8200006A91A483E
:104BE000FBF70EFB1848FBF7F7FB002D04BF164838
:104BF000FBF719FC0F48FFF7FBFD04281CBF132827
:104C0000052811D107E04FF000024FF001010948DB
:104C1000FFF7CEFD08E00C48FFF7C0FCADF8000040
:104C200069460A4801F0B3F80BB05846BDE8F08F6A
:104C30007C070020400700203C07002018070020C8
:104C400030070020E00100200C030020D4020020E7
:104C500070B582B00020ADF800006946A048FBF7AF
:104C60004DFE04469F480068FEF73CF99E48FFF75A
:104C7000BFFDC01E112824BF02B070BDDFE800F0E8
:104C8000095BD9F6F4F3F21C1C1C1C1C1C1E2F3EE5
:104C9000B00096480068FDF7E2F801469448FBF73B
:104CA00004FC94480068FFF782F9142000F08CF9A6
:104CB00010218D48FFF7A3FD02B070BDFFF7FEFE87
:104CC000002804BF02B070BD8A4800210068FEF7CA
:104CD0003BF911218448FFF792FD02B070BD854871
:104CE00001210068FEF730F9002804BF02B070BD52
:104CF00012217D48FFF783FD02B070BD7E4901207F
:104D000081F824007D487E490068FFF740FD744823
:104D1000FBF788FD04217448FFF771FD002804BFEC
:104D200002B070BD0020FCF74DF872480068FFF734
:104D300097F802B070BD6E48FBF7FCFC002849D024
:104D40006E480068FFF76AFC60F30F046A48818AC6
:104D500061F31F44046101A9694800F0CAFF644877
:104D6000FBF744FA002804BF02B070BDBDF904107F
:104D70005B48FBF762FE04466248FDF770F8C1B27B
:104D80005748FBF716FF21465D4801F0B2F8002CAA
:104D900004BF02B070BD5248FFF700FC564D0146FB
:104DA0006A681046FDF7E8F8574C06462068FFF79A
:104DB00084FBB5F9101000222068FFF73DFB31B2EB
:104DC00019222068FFF738FB1321201DFFF717FD7C
:104DD00002B070BD002210214348FFF7E9FCBAE79A
:104DE0004348FBF7A7FCE8B101A9454800F081FF63
:104DF0000446434801F08BF8204304BF02B070BD65
:104E0000424C2068FEF714F83B49B1F910104143B9
:104E10002068FEF71EF8052104F12400FFF7EFFCDF
:104E200002B070BD002210212F48FFF7C1FC02B074
:104E300070BD324C2A492068FFF7A9FC0020FBF71F
:104E4000F7FF0020FBF7A4FF062104F12800FFF77D
:104E5000D6FC2068FFF761FC201F0068FCF7A0FF6C
:104E600002B070BD2EE024E00FE0FFE71F480068AD
:104E7000FCF796FF0020FBF78BFF002CF0D10022FF
:104E800020211948FFF794FCEAE71A480068FEF76A
:104E9000ADFF0020FBF796FF12480068FDF7D5FD37
:104EA0004FF4487000F096F808210F48FFF7A7FC70
:104EB000D6E700F095F80028D2D009210A48FFF77C
:104EC0009EFCCDE70D480E490068FFF760FC0C48DA
:104ED00000F0ACFF00210448FFF791FCC0E70000A0
:104EE0000C03002034070020400700201407002096
:104EF000E0010020300700207C0700201807002078
:104F0000D4020020A40700203C0700201C0700203A
:104F100006480078012818BF704710B5002000F03F
:104F200007F8BDE81040FFF78DB900000C0700201E
:104F3000F8B504461F48006800901F4850F8240048
:104F4000FDF71EFF3DF814101C4F00EA010557F84D
:104F50002400FDF7F7FF054344B9A7F12400C06919
:104F6000FFF7BAFABDF8001008400543E84382B2E3
:104F7000134804EB440100EB410629463046FFF795
:104F800017FC3046FFF734FC0A2806D00B2804BF74
:104F900057F82400FEF7F3F8F8BD57F82400FEF7A1
:104FA000EEF82046FBF70EFF064850F82400FDF708
:104FB0004CFDF8BD006900082C07002030070020D8
:104FC0004007002034070020014988807047000016
:104FD0000C0700200149C880704700000C07002022
:104FE00003490020C988002908BF0120704700003C
:104FF0000C070020002180F81C117047FBF7ABBEA6
:1050000008B508218DF8001001236A46FF2100F041
:1050100075F808BD38B590F81C212B4D0446002AC0
:105020004FD094F81D31C9B28BB10022012B15D09D
:1050300094F89AC00CF1020C63451AD204F199005D
:10504000195494F81D01401C84F81D0139E084F8BE
:105050009910208A60821D4D0120F5E784F89A108E
:10506000022084F81D01C8B2802828BF84F81D21C1
:1050700027E084F81B116282D4F82001144D0168E6
:1050800021F02001016084F81C2104F19900FBF754
:105090004BFE94F81B1188420AD1D4F808C094F84A
:1050A0009A3094F8991004F19B022068E04708E0D8
:1050B0000A208DF8000001236A46FF21204600F0F7
:1050C0001DF8284638BD0000246A0008266A00083A
:1050D000286A000890F81C1100291CBF01207047A5
:1050E000002180F81D11012180F81C11D0F8200149
:1050F000016841F0200101600220704710B50446AC
:1051000090F8970000281CBF012010BD04F1160C78
:105110002175581E6375C0B207D300BF12F8011B7A
:10512000401E0CF8011BC0B2F8D204F11400FBF7CA
:10513000FBFD84F89600002184F89810012184F882
:105140009710D4F82001016841F08001016002202D
:1051500010BD90F897200146002A08BF704791F8CB
:105160009820002A08BF0A7D0CD0012A08BF4A7D7A
:1051700008D04B7D9B1C9A423ABF01F11403D25CCC
:1051800091F89620D0F820319A624B7D91F89820C2
:105190009B1C9A423EBF501C81F898007047D1F882
:1051A0002001026822F080020260002081F897004E
:1051B000D1E9000108478169002908BF7047084705
:1051C0004169002908BF70470847000070B5064CC8
:1051D0000546A06800F061FBA84218BF70BDA0683A
:1051E000BDE87040FFF7E7BF5007002070B5026AC6
:1051F00090F82C0001240F2952F820502AD2DFE821
:1052000001F0291915082A2A111D212529292929E2
:1052100015002846FCF74FFE062804BF2846FCF779
:1052200081FE18E02846FCF746FE18B12846FCF738
:1052300075FE10E02846FCF766FE0CE02846FCF7F9
:10524000FBFD08E02846FCF7A7FD04E02846FCF734
:105250009BFD00E00024204670BD000010B5036AED
:1052600090F82C0001EB8101DFF81CC053F82000FE
:105270004B000021CCFB03135911A1EBE37109B2E0
:10528000FCF7CAFD012010BD8988888810B5036A23
:1052900090F82C0053F82000FCF7C5FD012010BD4C
:1052A000034689209A68002A08BF704718461047AD
:1052B00000207047F0B58446436A90F82C00DCF873
:1052C000204083B053F8203054F820600020002A9A
:1052D0001CBF012414700924FE4D242900F096827D
:1052E00015DC242942D2DFE801F04E5359985F6C57
:1052F0007278FBBEC4CAD0D5DBE1E7FA4141F9F8C8
:105300004141417E84F7F6F58AF4F341F2F1362902
:1053100000F0D0810EDCA1F12501112926D2DFE8B1
:1053200001F0EAE9D8D7DFB4E8E7E6E52525E4E3CC
:10533000E2E1E0005B2976D009DCA1F13D0107291B
:1053400014D2DFE801F0FCFBFAF9A2F8F7007229A9
:1053500002BF1D2003B0F0BD0EDC6E2977D06F298F
:105360007BD0702902BFDC4803B0F0BD002A1CBF0F
:105370000021117003B0F0BD73290CBF02208129F8
:10538000F4D103B0F0BD604600F087FA03B0F0BD81
:10539000986A03B0BDE8F040FFF725BA986A03B0F9
:1053A000BDE8F040FFF724BA3046FCF781FDC0EBC2
:1053B0000010800085FB0010811003B0A1EBE070AD
:1053C000F0BD186803B0BDE8F040FDF733BD1868C4
:1053D00003B0BDE8F040FDF728BD186803B0BDE894
:1053E000F040FDF71FBD186B03B0BDE8F04000F0C2
:1053F00079BCD86A03B0BDE8F040FDF7E1BC3046A7
:10540000FCF71DFDC0EB0010800085FB0010811033
:1054100003B0A1EBE070F0BD05E003B03046BDE89D
:10542000F040FCF714BD3046FCF711FD0128BBD15C
:105430003046FCF735FDC0EB0010800085FB001006
:10544000811003B0A1EBE070F0BD00E005E018684A
:1054500003B0BDE8F040FDF7F0BC186803B0BDE84C
:10546000F040FDF7E5BC586803B0BDE8F040FDF73B
:10547000E1BC586803B0BDE8F040FDF7D6BC586801
:1054800003B0BDE8F040FDF7CDBC3046FCF705FDAC
:1054900000F045B9986803B0BDE8F040FDF7CABC1C
:1054A000986803B0BDE8F040FDF7BFBC986803B052
:1054B000BDE8F040FDF7B6BC9CF82C10DCF82800E5
:1054C00050F821100020B4EB117F15E09AE18EE135
:1054D00089E184E14CE145E13EE153E06EE01AE010
:1054E000A0E1CDE0B4E099E07EE031E0AAE1A5E101
:1054F000A0E19BE192E18DE108BF9869C1F30361EE
:10550000092908BFD86900281CBF01AA694651D0E3
:10551000FBF7FAFA4EE09CF82C10DCF8280050F863
:1055200021100020B4EB117F08BF9869C1F303611B
:10553000092905E0F6E0DBE044E137E12AE11DE17D
:1055400008BFD86900281CBF6A4601A932D0DFE72E
:105550009CF82C20DCF8281051F822200021B4EB14
:10556000127F08BF9969C2F30362092A08BFD9698B
:10557000002904BF03B0F0BD084603B0BDE8F04009
:10558000FFF70CB89CF82C10DCF8280050F821101C
:105590000020B4EB117F08BF9869C1F303610929AA
:1055A00008BFD86900281CBF01AA694602D000BF05
:1055B000FBF7B2FABDF9000003B0F0BD9CF82C1067
:1055C000DCF8280050F821100020B4EB117F08BF50
:1055D0009869C1F30361092908BFD86900281CBF75
:1055E0006A4601A9E6D0E3E79CF82C20DCF82810F5
:1055F00051F822200021B4EB127F08BF9969C2F351
:105600000362092A08BFD969002904BF03B0F0BDAD
:10561000084603B0BDE8F040FEF7C6BF9CF82C205A
:10562000DCF8281051F822200021B4EB127F08BFCB
:105630009969C2F30362092A08BFD969002904BF26
:1056400003B0F0BD0846FBF753FA03B000B2F0BD5B
:105650009CF82C20DCF8281051F822200021B4EB13
:10566000127F08BF9969C2F30362092A08BFD9698A
:10567000002904BF03B0F0BD0846FBF739FA4EE03D
:105680009CF82C20DCF8281051F822200021B4EBE3
:10569000127F08BF9969C2F30362092A08BFD9695A
:1056A000002904BF03B0F0BD0846FBF717FA03B0AA
:1056B00000B2F0BD9CF82C20DCF8281051F8222014
:1056C0000021B4EB127F08BF9969C2F30362092A73
:1056D00004E00000676666667A84A63408BFD9696C
:1056E000002904BF03B0F0BD0846FBF7F7F916E048
:1056F0009CF82C20DCF8281051F822200021B4EB73
:10570000127F08BF9969C2F30362092A08BFD969E9
:10571000002904BF03B0F0BD0846FBF72DFA03B023
:105720000014F0BD9CF82C20DCF8281051F8222041
:105730000021B4EB127F08BF9969C2F30362092A02
:1057400008BFD969002904BF03B0F0BD0846FBF7C4
:1057500016FA03B00014F0BDD86B03B0BDE8F040FA
:10576000FDF780B900216046FFF79AFD03B0F0BD58
:1057700001216046FFF794FD03B0F0BDDCF8102076
:10578000002A04BF03B0F0BD002103B06046BDE8AD
:10579000F0401047DCF81020002A04BF03B0F0BD31
:1057A000012103B06046BDE8F0401047586AFEF79B
:1057B000C4FFC0EB001025498000A1FB001003B01E
:1057C000C008F0BD586AFEF7C3FFC0EB00108000B0
:1057D00085FB0010811003B0A1EBE070F0BD3046F6
:1057E000FCF758FB31E73046FCF754FB97E7596963
:1057F000002904BF03B0F0BD084603B0BDE8F04087
:10580000FBF709B83046FCF724FB1EE73046FCF7EF
:1058100020FB84E73046FCF71FFB16E73046FCF719
:105820001BFB7CE73046FCF738FB0EE73046FCF705
:105830004DFB0AE73046FCF749FB70E73046FCF7C2
:1058400041FB02E73046FCF73DFB68E7CDCCCCCC12
:105850002DE9F0478946416A90F82C000124DDF8D3
:10586000208051F820001E4617464569002D08BFCC
:1058700000240FD049462846FAF7B9FF3880494638
:105880002846FAF7BAFF308049462846FAF7BCFFA7
:10589000A8F800002046BDE8F08790F82C0070477B
:1058A00010B5FCF791FF18B1BDE81040FCF7C8BF78
:1058B000BDE81040FCF7BEBFDDF800C00177002155
:1058C000C0E9082380F82C10C0F828C070470000F9
:1058D0000948418811B14188491E418081880129C8
:1058E00002D98188491E81800188012998BF7047AB
:1058F0000188491E0180704750070020037F012264
:105900008B4294BF002280F82C1010467047000094
:1059100001494F208880704750070020014900202E
:105920008880704750070020D0F820C090F82C00E5
:1059300061F30F0319465CF8200062F31F41FCF786
:10594000D3BA4368002B08BF70471847F0B5154617
:105950000246006A92F82C30012683B050F823707A
:10596000506A2CB20C2950F823007BD009DC0C299A
:105970001ED2DFE801F0211D1D461D373C415D6749
:105980006D724FF0090C112976D008DC0D297AD000
:105990000E297DD00F2972D0102971D008E014296A
:1059A0006FD015296ED0412900F0EC805B2909D019
:1059B000002603B03046F0BDE9B21046FFF79EFF67
:1059C0000646F6E705EB8500714A40000021C2FB60
:1059D00000104111A1EBE07001B200223846FCF743
:1059E0001BFAE6E700682146FDF739FAE1E70068AF
:1059F0002146FDF732FADCE700682146FDF72BFA75
:105A0000D7E715F0FF0F07D13846FCF757FA0146E4
:105A100000223846FCF707FAE8B20128C9D1384617
:105A2000FCF746FA014600223846FCF7F5F9C0E7D4
:105A30003846FCF732FA64F30F0001463846FCF7AB
:105A400053FAB6E740682146FDF709FAB1E709E0E5
:105A500040682146FDF701FAABE740682146FDF7B3
:105A6000FAF9A6E73846FCF718FA64F31F40014636
:105A70003846FCF739FA9CE730E004E008E00CE037
:105A800010E047E062E080682146FDF7E8F990E722
:105A900080682146FDF7E1F98BE780682146FDF734
:105AA000DAF986E7916A002551F82310BCEB117FE3
:105AB00008BF8569C1F30361092908BFC569002DC5
:105AC0003FF477AF6A4601A92846FBF71DF8BDF9F8
:105AD000002021462846FBF71CF86AE7916A00255A
